{
  "contractName": "ChangeMe",
  "abi": [
    {
      "inputs": [],
      "payable": false,
      "stateMutability": "nonpayable",
      "type": "constructor"
    },
    {
      "anonymous": false,
      "inputs": [
        {
          "indexed": false,
          "internalType": "string",
          "name": "url",
          "type": "string"
        },
        {
          "indexed": false,
          "internalType": "uint256",
          "name": "price",
          "type": "uint256"
        },
        {
          "indexed": false,
          "internalType": "address",
          "name": "owner",
          "type": "address"
        }
      ],
      "name": "UpdateURL",
      "type": "event"
    },
    {
      "constant": true,
      "inputs": [
        {
          "internalType": "uint256",
          "name": "",
          "type": "uint256"
        }
      ],
      "name": "updates",
      "outputs": [
        {
          "internalType": "string",
          "name": "url",
          "type": "string"
        },
        {
          "internalType": "address",
          "name": "owner",
          "type": "address"
        },
        {
          "internalType": "uint256",
          "name": "price",
          "type": "uint256"
        },
        {
          "internalType": "uint256",
          "name": "gasprice",
          "type": "uint256"
        }
      ],
      "payable": false,
      "stateMutability": "view",
      "type": "function"
    },
    {
      "constant": false,
      "inputs": [
        {
          "internalType": "string",
          "name": "newURL",
          "type": "string"
        }
      ],
      "name": "set",
      "outputs": [],
      "payable": true,
      "stateMutability": "payable",
      "type": "function"
    },
    {
      "constant": true,
      "inputs": [],
      "name": "getCurrent",
      "outputs": [
        {
          "components": [
            {
              "internalType": "string",
              "name": "url",
              "type": "string"
            },
            {
              "internalType": "address",
              "name": "owner",
              "type": "address"
            },
            {
              "internalType": "uint256",
              "name": "price",
              "type": "uint256"
            },
            {
              "internalType": "uint256",
              "name": "gasprice",
              "type": "uint256"
            }
          ],
          "internalType": "struct ChangeMe.Update",
          "name": "",
          "type": "tuple"
        }
      ],
      "payable": false,
      "stateMutability": "view",
      "type": "function"
    },
    {
      "constant": true,
      "inputs": [],
      "name": "getHistory",
      "outputs": [
        {
          "components": [
            {
              "internalType": "string",
              "name": "url",
              "type": "string"
            },
            {
              "internalType": "address",
              "name": "owner",
              "type": "address"
            },
            {
              "internalType": "uint256",
              "name": "price",
              "type": "uint256"
            },
            {
              "internalType": "uint256",
              "name": "gasprice",
              "type": "uint256"
            }
          ],
          "internalType": "struct ChangeMe.Update[]",
          "name": "",
          "type": "tuple[]"
        }
      ],
      "payable": false,
      "stateMutability": "view",
      "type": "function"
    }
  ],
  "bytecode": "0x60806040523480156200001157600080fd5b506200001c620001c6565b60405180608001604052806040518060400160405280601881526020017f68747470733a2f2f657468657265756d2e6f72672f656e2f000000000000000081525081526020013273ffffffffffffffffffffffffffffffffffffffff168152602001600081526020013a8152509050600181908060018154018082558091505090600182039060005260206000209060040201600090919290919091506000820151816000019080519060200190620000d792919062000204565b5060208201518160010160006101000a81548173ffffffffffffffffffffffffffffffffffffffff021916908373ffffffffffffffffffffffffffffffffffffffff16021790555060408201518160020155606082015181600301555050507f9340bfbe92c7e29aed0d4f1416db02c9a3583e3af691f0f2df650d74bc9b0915816000015182604001518360200151604051620001779392919062000316565b60405180910390a1326000806101000a81548173ffffffffffffffffffffffffffffffffffffffff021916908373ffffffffffffffffffffffffffffffffffffffff16021790555050620003fb565b604051806080016040528060608152602001600073ffffffffffffffffffffffffffffffffffffffff16815260200160008152602001600081525090565b828054600181600116156101000203166002900490600052602060002090601f016020900481019282601f106200024757805160ff191683800117855562000278565b8280016001018555821562000278579182015b82811115620002775782518255916020019190600101906200025a565b5b5090506200028791906200028b565b5090565b620002b091905b80821115620002ac57600081600090555060010162000292565b5090565b90565b620002be8162000376565b82525050565b6000620002d1826200035a565b620002dd818562000365565b9350620002ef818560208601620003b4565b620002fa81620003ea565b840191505092915050565b6200031081620003aa565b82525050565b60006060820190508181036000830152620003328186620002c4565b905062000343602083018562000305565b620003526040830184620002b3565b949350505050565b600081519050919050565b600082825260208201905092915050565b600062000383826200038a565b9050919050565b600073ffffffffffffffffffffffffffffffffffffffff82169050919050565b6000819050919050565b60005b83811015620003d4578082015181840152602081019050620003b7565b83811115620003e4576000848401525b50505050565b6000601f19601f8301169050919050565b610e44806200040b6000396000f3fe60806040526004361061003f5760003560e01c806335a5cfcb146100445780634ed3885e1461006f578063aa15efc81461008b578063b4c2f727146100b6575b600080fd5b34801561005057600080fd5b506100596100f6565b6040516100669190610c7a565b60405180910390f35b61008960048036036100849190810190610907565b61023b565b005b34801561009757600080fd5b506100a061055b565b6040516100ad9190610bae565b60405180910390f35b3480156100c257600080fd5b506100dd60048036036100d89190810190610948565b6106c6565b6040516100ed9493929190610bd0565b60405180910390f35b6100fe6107bb565b6001808080549050038154811061011157fe5b9060005260206000209060040201604051806080016040529081600082018054600181600116156101000203166002900480601f0160208091040260200160405190810160405280929190818152602001828054600181600116156101000203166002900480156101c35780601f10610198576101008083540402835291602001916101c3565b820191906000526020600020905b8154815290600101906020018083116101a657829003601f168201915b505050505081526020016001820160009054906101000a900473ffffffffffffffffffffffffffffffffffffffff1673ffffffffffffffffffffffffffffffffffffffff1673ffffffffffffffffffffffffffffffffffffffff16815260200160028201548152602001600382015481525050905090565b6102436107bb565b6001808080549050038154811061025657fe5b9060005260206000209060040201604051806080016040529081600082018054600181600116156101000203166002900480601f0160208091040260200160405190810160405280929190818152602001828054600181600116156101000203166002900480156103085780601f106102dd57610100808354040283529160200191610308565b820191906000526020600020905b8154815290600101906020018083116102eb57829003601f168201915b505050505081526020016001820160009054906101000a900473ffffffffffffffffffffffffffffffffffffffff1673ffffffffffffffffffffffffffffffffffffffff1673ffffffffffffffffffffffffffffffffffffffff168152602001600282015481526020016003820154815250509050806040015134111561051c576000809054906101000a900473ffffffffffffffffffffffffffffffffffffffff1673ffffffffffffffffffffffffffffffffffffffff166108fc349081150290604051600060405180830381858888f193505050501580156103f0573d6000803e3d6000fd5b50600160405180608001604052808481526020013273ffffffffffffffffffffffffffffffffffffffff1681526020013481526020013a8152509080600181540180825580915050906001820390600052602060002090600402016000909192909190915060008201518160000190805190602001906104719291906107f9565b5060208201518160010160006101000a81548173ffffffffffffffffffffffffffffffffffffffff021916908373ffffffffffffffffffffffffffffffffffffffff16021790555060408201518160020155606082015181600301555050507f9340bfbe92c7e29aed0d4f1416db02c9a3583e3af691f0f2df650d74bc9b091581600001518260400151836020015160405161050f93929190610c1c565b60405180910390a1610557565b6040517f08c379a000000000000000000000000000000000000000000000000000000000815260040161054e90610c5a565b60405180910390fd5b5050565b60606001805480602002602001604051908101604052809291908181526020016000905b828210156106bd5783829060005260206000209060040201604051806080016040529081600082018054600181600116156101000203166002900480601f01602080910402602001604051908101604052809291908181526020018280546001816001161561010002031660029004801561063b5780601f106106105761010080835404028352916020019161063b565b820191906000526020600020905b81548152906001019060200180831161061e57829003601f168201915b505050505081526020016001820160009054906101000a900473ffffffffffffffffffffffffffffffffffffffff1673ffffffffffffffffffffffffffffffffffffffff1673ffffffffffffffffffffffffffffffffffffffff168152602001600282015481526020016003820154815250508152602001906001019061057f565b50505050905090565b600181815481106106d357fe5b9060005260206000209060040201600091509050806000018054600181600116156101000203166002900480601f01602080910402602001604051908101604052809291908181526020018280546001816001161561010002031660029004801561077f5780601f106107545761010080835404028352916020019161077f565b820191906000526020600020905b81548152906001019060200180831161076257829003601f168201915b5050505050908060010160009054906101000a900473ffffffffffffffffffffffffffffffffffffffff16908060020154908060030154905084565b604051806080016040528060608152602001600073ffffffffffffffffffffffffffffffffffffffff16815260200160008152602001600081525090565b828054600181600116156101000203166002900490600052602060002090601f016020900481019282601f1061083a57805160ff1916838001178555610868565b82800160010185558215610868579182015b8281111561086757825182559160200191906001019061084c565b5b5090506108759190610879565b5090565b61089b91905b8082111561089757600081600090555060010161087f565b5090565b90565b600082601f8301126108af57600080fd5b81356108c26108bd82610cc9565b610c9c565b915080825260208301602083018583830111156108de57600080fd5b6108e9838284610d97565b50505092915050565b60008135905061090181610dea565b92915050565b60006020828403121561091957600080fd5b600082013567ffffffffffffffff81111561093357600080fd5b61093f8482850161089e565b91505092915050565b60006020828403121561095a57600080fd5b6000610968848285016108f2565b91505092915050565b600061097d8383610b2d565b905092915050565b61098e81610d5b565b82525050565b61099d81610d5b565b82525050565b60006109ae82610d05565b6109b88185610d28565b9350836020820285016109ca85610cf5565b8060005b85811015610a0657848403895281516109e78582610971565b94506109f283610d1b565b925060208a019950506001810190506109ce565b50829750879550505050505092915050565b6000610a2382610d10565b610a2d8185610d39565b9350610a3d818560208601610da6565b610a4681610dd9565b840191505092915050565b6000610a5c82610d10565b610a668185610d4a565b9350610a76818560208601610da6565b610a7f81610dd9565b840191505092915050565b6000610a97601a83610d4a565b91507f4e6f7420656e6f756768206f6666657220666f722070726963650000000000006000830152602082019050919050565b60006080830160008301518482036000860152610ae78282610a18565b9150506020830151610afc6020860182610985565b506040830151610b0f6040860182610b90565b506060830151610b226060860182610b90565b508091505092915050565b60006080830160008301518482036000860152610b4a8282610a18565b9150506020830151610b5f6020860182610985565b506040830151610b726040860182610b90565b506060830151610b856060860182610b90565b508091505092915050565b610b9981610d8d565b82525050565b610ba881610d8d565b82525050565b60006020820190508181036000830152610bc881846109a3565b905092915050565b60006080820190508181036000830152610bea8187610a51565b9050610bf96020830186610994565b610c066040830185610b9f565b610c136060830184610b9f565b95945050505050565b60006060820190508181036000830152610c368186610a51565b9050610c456020830185610b9f565b610c526040830184610994565b949350505050565b60006020820190508181036000830152610c7381610a8a565b9050919050565b60006020820190508181036000830152610c948184610aca565b905092915050565b6000604051905081810181811067ffffffffffffffff82111715610cbf57600080fd5b8060405250919050565b600067ffffffffffffffff821115610ce057600080fd5b601f19601f8301169050602081019050919050565b6000819050602082019050919050565b600081519050919050565b600081519050919050565b6000602082019050919050565b600082825260208201905092915050565b600082825260208201905092915050565b600082825260208201905092915050565b6000610d6682610d6d565b9050919050565b600073ffffffffffffffffffffffffffffffffffffffff82169050919050565b6000819050919050565b82818337600083830152505050565b60005b83811015610dc4578082015181840152602081019050610da9565b83811115610dd3576000848401525b50505050565b6000601f19601f8301169050919050565b610df381610d8d565b8114610dfe57600080fd5b5056fea365627a7a72315820b905dea9e8a8e6bd3f75421dac6d914798f60c1aa952c9829ac254c0f45b43256c6578706572696d656e74616cf564736f6c63430005100040",
  "source": "// SPDX-License-Identifier: MIT\npragma solidity >=0.4.21;\npragma experimental ABIEncoderV2;\n\ncontract ChangeMe {\n    address payable contractOwner;\n\n    struct Update {\n        string url;\n        address owner;\n        uint256 price;\n        uint256 gasprice;\n    }\n\n    Update[] public updates;\n\n    event UpdateURL(string url, uint256 price, address owner);\n\n    constructor() public {\n        Update memory state = Update(\"https://ethereum.org/en/\", tx.origin, 0, tx.gasprice);\n        updates.push(state);\n        emit UpdateURL(state.url, state.price, state.owner);\n        contractOwner = tx.origin;\n    }\n\n    function set(string memory newURL) public payable {\n        Update memory state = updates[updates.length - 1];\n        if (msg.value > state.price) {\n            contractOwner.transfer(msg.value);\n            updates.push(Update(newURL, tx.origin, msg.value, tx.gasprice));\n            emit UpdateURL(state.url, state.price, state.owner);\n        } else {\n            revert('Not enough offer for price');\n        }\n    }\n\n    function getCurrent() public view returns (Update memory) {\n       return updates[updates.length - 1];\n    }\n\n    function getHistory() public view returns (Update[] memory) {\n       return updates;\n    }\n}\n",
  "sourcePath": "/Users/aminekaabachi/Desktop/switch/contracts/ChangeMe.sol",
  "compiler": {
    "name": "solc",
    "version": "0.5.16+commit.9c3226ce.Emscripten.clang"
  },
  "schemaVersion": "3.4.3",
  "updatedAt": "2021-11-14T13:08:23.390Z",
  "networkType": "ethereum",
  "devdoc": {
    "methods": {}
  },
  "userdoc": {
    "methods": {}
  }
}