{
  "contractName": "ChangeMe",
  "abi": [
    {
      "inputs": [],
      "payable": false,
      "stateMutability": "nonpayable",
      "type": "constructor"
    },
    {
      "anonymous": false,
      "inputs": [
        {
          "indexed": false,
          "internalType": "string",
          "name": "url",
          "type": "string"
        },
        {
          "indexed": false,
          "internalType": "uint256",
          "name": "price",
          "type": "uint256"
        },
        {
          "indexed": false,
          "internalType": "address",
          "name": "owner",
          "type": "address"
        }
      ],
      "name": "UpdateURL",
      "type": "event"
    },
    {
      "constant": true,
      "inputs": [],
      "name": "state",
      "outputs": [
        {
          "internalType": "string",
          "name": "url",
          "type": "string"
        },
        {
          "internalType": "address",
          "name": "owner",
          "type": "address"
        },
        {
          "internalType": "uint256",
          "name": "price",
          "type": "uint256"
        },
        {
          "internalType": "uint256",
          "name": "gasprice",
          "type": "uint256"
        }
      ],
      "payable": false,
      "stateMutability": "view",
      "type": "function"
    },
    {
      "constant": false,
      "inputs": [
        {
          "internalType": "string",
          "name": "newURL",
          "type": "string"
        }
      ],
      "name": "set",
      "outputs": [],
      "payable": true,
      "stateMutability": "payable",
      "type": "function"
    },
    {
      "constant": true,
      "inputs": [],
      "name": "getURL",
      "outputs": [
        {
          "internalType": "string",
          "name": "url",
          "type": "string"
        }
      ],
      "payable": false,
      "stateMutability": "view",
      "type": "function"
    },
    {
      "constant": true,
      "inputs": [],
      "name": "getPrice",
      "outputs": [
        {
          "internalType": "uint256",
          "name": "price",
          "type": "uint256"
        }
      ],
      "payable": false,
      "stateMutability": "view",
      "type": "function"
    },
    {
      "constant": true,
      "inputs": [],
      "name": "getOwner",
      "outputs": [
        {
          "internalType": "address",
          "name": "owner",
          "type": "address"
        }
      ],
      "payable": false,
      "stateMutability": "view",
      "type": "function"
    },
    {
      "constant": true,
      "inputs": [],
      "name": "getGasPrice",
      "outputs": [
        {
          "internalType": "uint256",
          "name": "gasprice",
          "type": "uint256"
        }
      ],
      "payable": false,
      "stateMutability": "view",
      "type": "function"
    }
  ],
  "bytecode": "0x60806040523480156200001157600080fd5b5060405180608001604052806040518060400160405280601881526020017f68747470733a2f2f657468657265756d2e6f72672f656e2f000000000000000081525081526020013273ffffffffffffffffffffffffffffffffffffffff168152602001600081526020013a815250600160008201518160000190805190602001906200009f929190620001ae565b5060208201518160010160006101000a81548173ffffffffffffffffffffffffffffffffffffffff021916908373ffffffffffffffffffffffffffffffffffffffff16021790555060408201518160020155606082015181600301559050507f9340bfbe92c7e29aed0d4f1416db02c9a3583e3af691f0f2df650d74bc9b091560016000016001600201546001800160009054906101000a900473ffffffffffffffffffffffffffffffffffffffff1660405162000160939291906200031a565b60405180910390a1326000806101000a81548173ffffffffffffffffffffffffffffffffffffffff021916908373ffffffffffffffffffffffffffffffffffffffff160217905550620003c2565b828054600181600116156101000203166002900490600052602060002090601f016020900481019282601f10620001f157805160ff191683800117855562000222565b8280016001018555821562000222579182015b828111156200022157825182559160200191906001019062000204565b5b50905062000231919062000235565b5090565b6200025a91905b80821115620002565760008160009055506001016200023c565b5090565b90565b620002688162000384565b82525050565b6000815460018116600081146200028e5760018114620002b75762000301565b607f6002830416620002a1818762000373565b955060ff19831686526020860193505062000301565b60028204620002c7818762000373565b9550620002d4856200035e565b60005b82811015620002f857815481890152600182019150602081019050620002d7565b80880195505050505b505092915050565b6200031481620003b8565b82525050565b600060608201905081810360008301526200033681866200026e565b905062000347602083018562000309565b6200035660408301846200025d565b949350505050565b60008190508160005260206000209050919050565b600082825260208201905092915050565b6000620003918262000398565b9050919050565b600073ffffffffffffffffffffffffffffffffffffffff82169050919050565b6000819050919050565b61095180620003d26000396000f3fe6080604052600436106100555760003560e01c806338bcdc1c1461005a578063455259cb146100855780634ed3885e146100b0578063893d20e8146100cc57806398d5fdca146100f7578063c19d93fb14610122575b600080fd5b34801561006657600080fd5b5061006f610150565b60405161007c9190610723565b60405180910390f35b34801561009157600080fd5b5061009a6101f5565b6040516100a791906107cf565b60405180910390f35b6100ca60048036036100c591908101906105a8565b610202565b005b3480156100d857600080fd5b506100e16103a0565b6040516100ee9190610708565b60405180910390f35b34801561010357600080fd5b5061010c6103cc565b60405161011991906107cf565b60405180910390f35b34801561012e57600080fd5b506101376103d9565b6040516101479493929190610745565b60405180910390f35b606060016000018054600181600116156101000203166002900480601f0160208091040260200160405190810160405280929190818152602001828054600181600116156101000203166002900480156101eb5780601f106101c0576101008083540402835291602001916101eb565b820191906000526020600020905b8154815290600101906020018083116101ce57829003601f168201915b5050505050905090565b6000600160030154905090565b600160020154341115610398576000809054906101000a900473ffffffffffffffffffffffffffffffffffffffff1673ffffffffffffffffffffffffffffffffffffffff166108fc349081150290604051600060405180830381858888f19350505050158015610276573d6000803e3d6000fd5b5060405180608001604052808281526020013273ffffffffffffffffffffffffffffffffffffffff1681526020013481526020013a815250600160008201518160000190805190602001906102cc9291906104af565b5060208201518160010160006101000a81548173ffffffffffffffffffffffffffffffffffffffff021916908373ffffffffffffffffffffffffffffffffffffffff16021790555060408201518160020155606082015181600301559050507f9340bfbe92c7e29aed0d4f1416db02c9a3583e3af691f0f2df650d74bc9b091560016000016001600201546001800160009054906101000a900473ffffffffffffffffffffffffffffffffffffffff1660405161038b93929190610791565b60405180910390a161039d565b600080fd5b50565b60006001800160009054906101000a900473ffffffffffffffffffffffffffffffffffffffff16905090565b6000600160020154905090565b6001806000018054600181600116156101000203166002900480601f0160208091040260200160405190810160405280929190818152602001828054600181600116156101000203166002900480156104735780601f1061044857610100808354040283529160200191610473565b820191906000526020600020905b81548152906001019060200180831161045657829003601f168201915b5050505050908060010160009054906101000a900473ffffffffffffffffffffffffffffffffffffffff16908060020154908060030154905084565b828054600181600116156101000203166002900490600052602060002090601f016020900481019282601f106104f057805160ff191683800117855561051e565b8280016001018555821561051e579182015b8281111561051d578251825591602001919060010190610502565b5b50905061052b919061052f565b5090565b61055191905b8082111561054d576000816000905550600101610535565b5090565b90565b600082601f83011261056557600080fd5b813561057861057382610817565b6107ea565b9150808252602083016020830185838301111561059457600080fd5b61059f8382846108bb565b50505092915050565b6000602082840312156105ba57600080fd5b600082013567ffffffffffffffff8111156105d457600080fd5b6105e084828501610554565b91505092915050565b6105f28161087f565b82525050565b600061060382610863565b61060d818561086e565b935061061d8185602086016108ca565b610626816108fd565b840191505092915050565b600061063c82610858565b610646818561086e565b93506106568185602086016108ca565b61065f816108fd565b840191505092915050565b60008154600181166000811461068757600181146106ad576106f1565b607f6002830416610698818761086e565b955060ff1983168652602086019350506106f1565b600282046106bb818761086e565b95506106c685610843565b60005b828110156106e8578154818901526001820191506020810190506106c9565b80880195505050505b505092915050565b610702816108b1565b82525050565b600060208201905061071d60008301846105e9565b92915050565b6000602082019050818103600083015261073d81846105f8565b905092915050565b6000608082019050818103600083015261075f8187610631565b905061076e60208301866105e9565b61077b60408301856106f9565b61078860608301846106f9565b95945050505050565b600060608201905081810360008301526107ab818661066a565b90506107ba60208301856106f9565b6107c760408301846105e9565b949350505050565b60006020820190506107e460008301846106f9565b92915050565b6000604051905081810181811067ffffffffffffffff8211171561080d57600080fd5b8060405250919050565b600067ffffffffffffffff82111561082e57600080fd5b601f19601f8301169050602081019050919050565b60008190508160005260206000209050919050565b600081519050919050565b600081519050919050565b600082825260208201905092915050565b600061088a82610891565b9050919050565b600073ffffffffffffffffffffffffffffffffffffffff82169050919050565b6000819050919050565b82818337600083830152505050565b60005b838110156108e85780820151818401526020810190506108cd565b838111156108f7576000848401525b50505050565b6000601f19601f830116905091905056fea365627a7a72315820504d8f953c6315b781418c4ed92ffa385a55d4fb4d90d657dfd27d5d9e4245d66c6578706572696d656e74616cf564736f6c63430005100040",
  "source": "// SPDX-License-Identifier: MIT\npragma solidity >=0.4.21 <0.7.0;\npragma experimental ABIEncoderV2;\n\ncontract ChangeMe {\n    address payable contractOwner;\n\n    struct Update {\n        string url;\n        address owner;\n        uint256 price;\n        uint256 gasprice;\n    }\n\n    Update public state;\n\n    event UpdateURL(string url, uint256 price, address owner);\n\n    constructor() public {\n        state = Update(\"https://ethereum.org/en/\", tx.origin, 0, tx.gasprice);\n        emit UpdateURL(state.url, state.price, state.owner);\n        contractOwner = tx.origin;\n    }\n\n    function set(string memory newURL) public payable {\n        if (msg.value > state.price) {\n            contractOwner.transfer(msg.value);\n            state = Update(newURL, tx.origin, msg.value, tx.gasprice);\n            emit UpdateURL(state.url, state.price, state.owner);\n        } else {\n            revert();\n        }\n    }\n\n    function getURL() public view returns (string memory url) {\n        return state.url;\n    }\n\n    function getPrice() public view returns (uint256 price) {\n        return state.price;\n    }\n\n    function getOwner() public view returns (address owner) {\n        return state.owner;\n    }\n\n    function getGasPrice() public view returns (uint256 gasprice) {\n        return state.gasprice;\n    }\n}\n",
  "sourcePath": "/Users/aminekaabachi/Desktop/switch/contracts/ChangeMe.sol",
  "compiler": {
    "name": "solc",
    "version": "0.5.16+commit.9c3226ce.Emscripten.clang"
  },
  "schemaVersion": "3.4.3",
  "updatedAt": "2021-11-14T12:34:51.873Z",
  "networkType": "ethereum",
  "devdoc": {
    "methods": {}
  },
  "userdoc": {
    "methods": {}
  }
}